:100000000C943E000C9452000C9450000C94500040
:100010000C9450000C9450000C9450000C94500020
:100020000C9450000C9450000C9450000C94500010
:100030000C9450000C9450000C9450000C94500000
:100040000C9450000C9450000C9450000C945000F0
:100050000C9450000C9450000C9450000C945000E0
:100060000C9450000C9450000C9450000C945000D0
:100070000C9450000C9450000C94500011241FBE9E
:10008000CFEFD4E0DEBFCDBF21E0A0E0B1E001C002
:100090001D92A230B207E1F70E94BA010C940D0242
:1000A0000C9400001F920F920FB60F9211248F93A1
:1000B000F8941092000186B5853618F081E080939F
:1000C000000116BC80910101815080930101789458
:1000D0008F910F900FBE0F901F901895E9E6F0E0FA
:1000E000808182608083E89A8CB31CBA84B5816079
:1000F00084BD0895EC011882529A5A9888E893E1D9
:100100000197F1F75A9A8CE08A95F1F752985A9A2A
:1001100082E38A95F1F716BC88E080930101109282
:1001200000017894809101014CE064E080E00E943D
:100130007C01809100012091010190E002C0880FB4
:10014000991F2A95E2F79881892B88838091010174
:1001500061E0805D0E9427014DE060E080E00E9448
:100160007C01E0CF1092B9008AE28093B800089534
:1001700094EA9093BC0098B1936098B9ECEBF0E0EE
:1001800090819923ECF79091B900987F983011F005
:100190009031A1F48093BB0084E88093BC00ECEB29
:1001A000F0E080818823ECF79091B900987F983136
:1001B00039F081E0903429F480E0089581E00895D9
:1001C00080E0089584E98093BC00ECEBF0E080814E
:1001D00084FDFDCF08958093BB0084E88093BC002C
:1001E000ECEBF0E080818823ECF79091B900987FE8
:1001F00081E0983209F480E0089584EC8093BC009B
:10020000ECEBF0E080818823ECF78091BB0008954F
:1002100084E88093BC00ECEBF0E080818823ECF76D
:100220008091BB000895CF93C62FC82B8C2F8C6074
:100230000E94EB0081E08A95F1F78C2F837F886024
:100240000E94EB0080E18A95F1F7CF9108951F930A
:10025000CF93DF93C82F162F8EE40E94B800DC2FB7
:10026000D07F8D2F812B88600E94EB00612F8D2F16
:100270000E94130180E1C89FE0011124CE01886033
:10028000812B0E94EB00612F8C2F0E9413010E9492
:10029000E200DF91CF911F910895CF930E94B200A9
:1002A00060E083E00E94270182EE94E00197F1F77D
:1002B00060E083E00E942701C2E38C2F8A95F1F76A
:1002C00060E083E00E942701CA95F1F760E082E0D8
:1002D0000E94270160E088E20E94270160E088E038
:1002E0000E94270160E081E00E94270160E08CE02D
:1002F0000E942701CF9108951F93CF93DF93C42FBE
:10030000442369F0182F1061162BD0E160E0812F93
:100310000E9427019D2F9A95F1F7C150B9F7DF91FF
:10032000CF911F9108950F931F93CF93DF93D82FF1
:10033000C92F80ED0E94B80080E00E94EB000E946F
:10034000E20081ED0E94B8000D2F1C2FC0E0D0E02C
:100350000E94FD00F80181938F012196C730D105DD
:10036000B9F70E9408010E94E200DF91CF911F912E
:100370000F910895CF93DF93CDB7DEB729970FB6CE
:10038000F894DEBF0FBECDBF84B1896084B985B15A
:10039000896085B90E94B2000E944D010E946E00E2
:1003A000CE0101960E9493018B8182958F7061E04E
:1003B000805D0E9427018B818F7061E0805D0E94CB
:1003C000270161E08EE20E9427018A8182958F7069
:1003D00061E0805D0E9427018A818F7061E0805D0D
:1003E0000E94270161E08EE20E94270189818295A7
:1003F0008F7061E0805D0E94270189818F7061E0CC
:10040000805D0E94270148E060E080E00E947C015E
:0E041000CE0108960E947A00C3CFF894FFCF69
:00000001FF
